{
  "_format": "hh-sol-artifact-1",
  "contractName": "Dex",
  "sourceName": "contracts/dex.sol",
  "abi": [
    {
      "inputs": [
        {
          "internalType": "address[]",
          "name": "_tokenAddr",
          "type": "address[]"
        },
        {
          "internalType": "address[]",
          "name": "_tokenPriceAddr",
          "type": "address[]"
        }
      ],
      "stateMutability": "nonpayable",
      "type": "constructor"
    },
    {
      "anonymous": false,
      "inputs": [
        {
          "indexed": false,
          "internalType": "address",
          "name": "_tokenAddr",
          "type": "address"
        }
      ],
      "name": "AddNewToken",
      "type": "event"
    },
    {
      "anonymous": false,
      "inputs": [
        {
          "indexed": false,
          "internalType": "address",
          "name": "tokenAddr",
          "type": "address"
        },
        {
          "indexed": false,
          "internalType": "address",
          "name": "account",
          "type": "address"
        },
        {
          "indexed": false,
          "internalType": "uint256",
          "name": "amount",
          "type": "uint256"
        },
        {
          "indexed": false,
          "internalType": "uint256",
          "name": "cost",
          "type": "uint256"
        }
      ],
      "name": "BuyToken",
      "type": "event"
    },
    {
      "anonymous": false,
      "inputs": [
        {
          "indexed": false,
          "internalType": "address",
          "name": "depositer",
          "type": "address"
        },
        {
          "indexed": false,
          "internalType": "uint256",
          "name": "amount",
          "type": "uint256"
        }
      ],
      "name": "Deposit",
      "type": "event"
    },
    {
      "anonymous": false,
      "inputs": [
        {
          "indexed": true,
          "internalType": "address",
          "name": "previousOwner",
          "type": "address"
        },
        {
          "indexed": true,
          "internalType": "address",
          "name": "newOwner",
          "type": "address"
        }
      ],
      "name": "OwnershipTransferred",
      "type": "event"
    },
    {
      "anonymous": false,
      "inputs": [
        {
          "indexed": false,
          "internalType": "address",
          "name": "_tokenAddr",
          "type": "address"
        }
      ],
      "name": "RemoveToken",
      "type": "event"
    },
    {
      "anonymous": false,
      "inputs": [
        {
          "indexed": false,
          "internalType": "address",
          "name": "tokenAddr",
          "type": "address"
        },
        {
          "indexed": false,
          "internalType": "address",
          "name": "account",
          "type": "address"
        },
        {
          "indexed": false,
          "internalType": "uint256",
          "name": "amount",
          "type": "uint256"
        },
        {
          "indexed": false,
          "internalType": "uint256",
          "name": "cost",
          "type": "uint256"
        }
      ],
      "name": "SellToken",
      "type": "event"
    },
    {
      "anonymous": false,
      "inputs": [
        {
          "indexed": false,
          "internalType": "address",
          "name": "_tokenAddr",
          "type": "address"
        },
        {
          "indexed": false,
          "internalType": "uint256",
          "name": "amount",
          "type": "uint256"
        }
      ],
      "name": "Withdraw",
      "type": "event"
    },
    {
      "inputs": [
        {
          "internalType": "address",
          "name": "_tokenAddr",
          "type": "address"
        },
        {
          "internalType": "address",
          "name": "_tokenPriceAddr",
          "type": "address"
        }
      ],
      "name": "addNewToken",
      "outputs": [],
      "stateMutability": "nonpayable",
      "type": "function"
    },
    {
      "inputs": [
        {
          "internalType": "address",
          "name": "_tokenAddr",
          "type": "address"
        }
      ],
      "name": "buyToken",
      "outputs": [],
      "stateMutability": "payable",
      "type": "function"
    },
    {
      "inputs": [
        {
          "internalType": "address",
          "name": "_tokenAddr",
          "type": "address"
        }
      ],
      "name": "getPrice",
      "outputs": [
        {
          "internalType": "uint256",
          "name": "",
          "type": "uint256"
        }
      ],
      "stateMutability": "view",
      "type": "function"
    },
    {
      "inputs": [],
      "name": "owner",
      "outputs": [
        {
          "internalType": "address",
          "name": "",
          "type": "address"
        }
      ],
      "stateMutability": "view",
      "type": "function"
    },
    {
      "inputs": [
        {
          "internalType": "address",
          "name": "_tokenAddr",
          "type": "address"
        }
      ],
      "name": "removeToken",
      "outputs": [],
      "stateMutability": "nonpayable",
      "type": "function"
    },
    {
      "inputs": [],
      "name": "renounceOwnership",
      "outputs": [],
      "stateMutability": "nonpayable",
      "type": "function"
    },
    {
      "inputs": [
        {
          "internalType": "address",
          "name": "_tokenAddr",
          "type": "address"
        },
        {
          "internalType": "uint256",
          "name": "_value",
          "type": "uint256"
        }
      ],
      "name": "sellToken",
      "outputs": [],
      "stateMutability": "nonpayable",
      "type": "function"
    },
    {
      "inputs": [
        {
          "internalType": "address",
          "name": "",
          "type": "address"
        }
      ],
      "name": "supportedTokenAddr",
      "outputs": [
        {
          "internalType": "bool",
          "name": "",
          "type": "bool"
        }
      ],
      "stateMutability": "view",
      "type": "function"
    },
    {
      "inputs": [
        {
          "internalType": "address",
          "name": "",
          "type": "address"
        }
      ],
      "name": "tokenToPriceAddr",
      "outputs": [
        {
          "internalType": "address",
          "name": "",
          "type": "address"
        }
      ],
      "stateMutability": "view",
      "type": "function"
    },
    {
      "inputs": [
        {
          "internalType": "address",
          "name": "newOwner",
          "type": "address"
        }
      ],
      "name": "transferOwnership",
      "outputs": [],
      "stateMutability": "nonpayable",
      "type": "function"
    },
    {
      "inputs": [
        {
          "internalType": "uint256",
          "name": "_amount",
          "type": "uint256"
        }
      ],
      "name": "withdrawEth",
      "outputs": [],
      "stateMutability": "nonpayable",
      "type": "function"
    },
    {
      "inputs": [
        {
          "internalType": "address",
          "name": "_tokenAddr",
          "type": "address"
        },
        {
          "internalType": "uint256",
          "name": "_amount",
          "type": "uint256"
        }
      ],
      "name": "withdrawToken",
      "outputs": [],
      "stateMutability": "nonpayable",
      "type": "function"
    },
    {
      "stateMutability": "payable",
      "type": "receive"
    }
  ],
  "bytecode": "0x60806040523480156200001157600080fd5b5060405162001336380380620013368339810160408190526200003491620002f5565b6200003f33620001d8565b60005b8251811015620001cf5760018060008584815181106200007257634e487b7160e01b600052603260045260246000fd5b60200260200101516001600160a01b03166001600160a01b0316815260200190815260200160002060006101000a81548160ff021916908315150217905550818181518110620000d257634e487b7160e01b600052603260045260246000fd5b602002602001015160026000858481518110620000ff57634e487b7160e01b600052603260045260246000fd5b60200260200101516001600160a01b03166001600160a01b0316815260200190815260200160002060006101000a8154816001600160a01b0302191690836001600160a01b031602179055507f42fb71c04e6650a34983ed55f09500bef00b288f2152356b1857630026235f128382815181106200018d57634e487b7160e01b600052603260045260246000fd5b6020026020010151604051620001b291906001600160a01b0391909116815260200190565b60405180910390a180620001c6816200035c565b91505062000042565b5050506200039a565b600080546001600160a01b038381166001600160a01b0319831681178455604051919092169283917f8be0079c531659141344cd1fd0a4f28419497f9722a3daafe3b4186f6b6457e09190a35050565b80516001600160a01b03811681146200024057600080fd5b919050565b600082601f83011262000256578081fd5b815160206001600160401b038083111562000275576200027562000384565b8260051b604051601f19603f830116810181811084821117156200029d576200029d62000384565b60405284815283810192508684018288018501891015620002bc578687fd5b8692505b85831015620002e957620002d48162000228565b845292840192600192909201918401620002c0565b50979650505050505050565b6000806040838503121562000308578182fd5b82516001600160401b03808211156200031f578384fd5b6200032d8683870162000245565b9350602085015191508082111562000343578283fd5b50620003528582860162000245565b9150509250929050565b60006000198214156200037d57634e487b7160e01b81526011600452602481fd5b5060010190565b634e487b7160e01b600052604160045260246000fd5b610f8c80620003aa6000396000f3fe6080604052600436106100ab5760003560e01c80638da5cb5b116100645780638da5cb5b146101cc5780638de2a9fb146101fe5780639e281a9814610234578063c311d04914610254578063f2fde38b14610274578063f464e7db1461029457600080fd5b8063096db4d6146100ef578063403bf8c71461013457806341976e09146101565780635fa7b58414610184578063715018a6146101a45780637e72fb52146101b957600080fd5b366100ea57604080513381523460208201527fe1fffcc4923d04b559f4d29a8bfc6cda04eb5b0d3c460751c2402c5c5cc9109c910160405180910390a1005b600080fd5b3480156100fb57600080fd5b5061011f61010a366004610d86565b60016020526000908152604090205460ff1681565b60405190151581526020015b60405180910390f35b34801561014057600080fd5b5061015461014f366004610da7565b6102b4565b005b34801561016257600080fd5b50610176610171366004610d86565b6103d7565b60405190815260200161012b565b34801561019057600080fd5b5061015461019f366004610d86565b6104b1565b3480156101b057600080fd5b50610154610583565b6101546101c7366004610d86565b6105b9565b3480156101d857600080fd5b506000546001600160a01b03165b6040516001600160a01b03909116815260200161012b565b34801561020a57600080fd5b506101e6610219366004610d86565b6002602052600090815260409020546001600160a01b031681565b34801561024057600080fd5b5061015461024f366004610dd9565b6107ba565b34801561026057600080fd5b5061015461026f366004610e22565b6108e8565b34801561028057600080fd5b5061015461028f366004610d86565b610a31565b3480156102a057600080fd5b506101546102af366004610dd9565b610acc565b6000546001600160a01b031633146102e75760405162461bcd60e51b81526004016102de90610ed6565b60405180910390fd5b6001600160a01b03821660009081526001602052604090205460ff161561035c5760405162461bcd60e51b8152602060048201526024808201527f4465783a205468697320746f6b656e20697320616c726561647920737570706f6044820152631c9d195960e21b60648201526084016102de565b6001600160a01b038281166000818152600160208181526040808420805460ff1916909317909255600281529181902080546001600160a01b0319169486169490941790935591519081527f42fb71c04e6650a34983ed55f09500bef00b288f2152356b1857630026235f1291015b60405180910390a15050565b6001600160a01b0381166000908152600160208190526040822054839160ff9091161515146104185760405162461bcd60e51b81526004016102de90610ea1565b6001600160a01b03808416600090815260026020526040808220548151633fabe5a360e21b81529151931692839163feaf968c9160048083019260a0929190829003018186803b15801561046b57600080fd5b505afa15801561047f573d6000803e3d6000fd5b505050506040513d601f19601f820116820180604052508101906104a39190610e52565b509198975050505050505050565b6000546001600160a01b031633146104db5760405162461bcd60e51b81526004016102de90610ed6565b6001600160a01b038116600090815260016020819052604090912054829160ff90911615151461051d5760405162461bcd60e51b81526004016102de90610ea1565b6001600160a01b0382166000818152600160209081526040808320805460ff19169055600282529182902080546001600160a01b031916905590519182527f4eb129c82dcd3eedb52df2b0e6fb4cfa41ac64ee9d63ff081acbb1877e85d79b91016103cb565b6000546001600160a01b031633146105ad5760405162461bcd60e51b81526004016102de90610ed6565b6105b76000610d00565b565b6001600160a01b038116600090815260016020819052604090912054829160ff9091161515146105fb5760405162461bcd60e51b81526004016102de90610ea1565b816000610607826103d7565b61061934670de0b6b3a7640000610f2b565b6106239190610f0b565b6040516370a0823160e01b815230600482015290915081906001600160a01b038416906370a082319060240160206040518083038186803b15801561066757600080fd5b505afa15801561067b573d6000803e3d6000fd5b505050506040513d601f19601f8201168201806040525081019061069f9190610e3a565b10156106e35760405162461bcd60e51b815260206004820152601360248201527211195e0e88151bdad95b881cdbdb19081bdd5d606a1b60448201526064016102de565b60405163a9059cbb60e01b8152336004820152602481018290526001600160a01b0383169063a9059cbb90604401602060405180830381600087803b15801561072b57600080fd5b505af115801561073f573d6000803e3d6000fd5b505050506040513d601f19601f820116820180604052508101906107639190610e02565b50604080516001600160a01b03861681523360208201529081018290523460608201527facf531ec465d633652ed6f0179042e0f5105d16b2eb45652517eb8f96e3d1997906080015b60405180910390a150505050565b6000546001600160a01b031633146107e45760405162461bcd60e51b81526004016102de90610ed6565b6001600160a01b038216600090815260016020819052604090912054839160ff9091161515146108265760405162461bcd60e51b81526004016102de90610ea1565b60405163a9059cbb60e01b81523360048201526024810183905283906001600160a01b0382169063a9059cbb90604401602060405180830381600087803b15801561087057600080fd5b505af1158015610884573d6000803e3d6000fd5b505050506040513d601f19601f820116820180604052508101906108a89190610e02565b50604080516001600160a01b0386168152602081018590527f884edad9ce6fa2440d8a54cc123490eb96d2768479d49ff9c7366125a942436491016107ac565b6000546001600160a01b031633146109125760405162461bcd60e51b81526004016102de90610ed6565b478110156109625760405162461bcd60e51b815260206004820152601d60248201527f4465783a20496e73756666696369656e74204574682062616c616e636500000060448201526064016102de565b604051600090339083908381818185875af1925050503d80600081146109a4576040519150601f19603f3d011682016040523d82523d6000602084013e6109a9565b606091505b50509050806109fa5760405162461bcd60e51b815260206004820152601f60248201527f4465783a20455448207472616e7366657220756e7375636365737366756c210060448201526064016102de565b6040805160008152602081018490527f884edad9ce6fa2440d8a54cc123490eb96d2768479d49ff9c7366125a942436491016103cb565b6000546001600160a01b03163314610a5b5760405162461bcd60e51b81526004016102de90610ed6565b6001600160a01b038116610ac05760405162461bcd60e51b815260206004820152602660248201527f4f776e61626c653a206e6577206f776e657220697320746865207a65726f206160448201526564647265737360d01b60648201526084016102de565b610ac981610d00565b50565b6001600160a01b038216600090815260016020819052604090912054839160ff909116151514610b0e5760405162461bcd60e51b81526004016102de90610ea1565b826000670de0b6b3a7640000610b23836103d7565b610b2d9086610f2b565b610b379190610f0b565b905080471015610b895760405162461bcd60e51b815260206004820152601d60248201527f4465783a2043616e6e6f74206166666f7264207468697320746f6b656e00000060448201526064016102de565b6040516323b872dd60e01b8152336004820152306024820152604481018590526001600160a01b038316906323b872dd90606401602060405180830381600087803b158015610bd757600080fd5b505af1158015610beb573d6000803e3d6000fd5b505050506040513d601f19601f82011682018060405250810190610c0f9190610e02565b50604051600090339083908381818185875af1925050503d8060008114610c52576040519150601f19603f3d011682016040523d82523d6000602084013e610c57565b606091505b5050905080610ca85760405162461bcd60e51b815260206004820152601f60248201527f4465783a20455448207472616e7366657220756e7375636365737366756c210060448201526064016102de565b604080516001600160a01b0388168152336020820152908101839052606081018690527fbbcd6525e9abb18370c96747b5bdabcbfb595afb38cb853a1ed34b210ad437c69060800160405180910390a1505050505050565b600080546001600160a01b038381166001600160a01b0319831681178455604051919092169283917f8be0079c531659141344cd1fd0a4f28419497f9722a3daafe3b4186f6b6457e09190a35050565b80356001600160a01b0381168114610d6757600080fd5b919050565b805169ffffffffffffffffffff81168114610d6757600080fd5b600060208284031215610d97578081fd5b610da082610d50565b9392505050565b60008060408385031215610db9578081fd5b610dc283610d50565b9150610dd060208401610d50565b90509250929050565b60008060408385031215610deb578182fd5b610df483610d50565b946020939093013593505050565b600060208284031215610e13578081fd5b81518015158114610da0578182fd5b600060208284031215610e33578081fd5b5035919050565b600060208284031215610e4b578081fd5b5051919050565b600080600080600060a08688031215610e69578081fd5b610e7286610d6c565b9450602086015193506040860151925060608601519150610e9560808701610d6c565b90509295509295909350565b6020808252818101527f4465783a205468697320746f6b656e206973206e6f7420737570706f72746564604082015260600190565b6020808252818101527f4f776e61626c653a2063616c6c6572206973206e6f7420746865206f776e6572604082015260600190565b600082610f2657634e487b7160e01b81526012600452602481fd5b500490565b6000816000190483118215151615610f5157634e487b7160e01b81526011600452602481fd5b50029056fea2646970667358221220d1298447ec5c8287e58689137c3d024f539d8f5d4b7322f15fc3bed76d1850c964736f6c63430008040033",
  "linkReferences": {},
  "deployedLinkReferences": {}
}